:100000000C9434000C943E000C943E000C943E0082
:100010000C943E000C943E000C943E000C943E0068
:100020000C943E000C943E000C943E000C943E0058
:100030000C943E000C943E000C943E000C943E0048
:100040000C943E000C943E000C943E000C943E0038
:100050000C943E000C948C000C943E000C943E00DA
:100060000C943E000C943E0011241FBECFEFD8E04C
:10007000DEBFCDBF0E9483000C94B8000C9400003A
:10008000ECE7F0E0808180668083EAE7F0E0808141
:10009000886880838081866080838081806480839B
:1000A0000895E0E8F0E0808182688083E1E8F0E094
:1000B00080818A6180838FE39CE99093870080939D
:1000C000860084B1816084B908959C01220F331F9A
:1000D000C901880F991F880F991F880F991F821BCC
:1000E000930B88519C4F20918600309187002817F0
:1000F000390720F4809186009091870090938900C1
:1001000080938800089584B1826084B90E94400081
:100110000E9451007894FFCF1F920F920FB60F925A
:1001200011242F933F934F935F936F937F938F93FC
:100130009F93AF93BF93EF93FF938091790090E0EB
:100140000E946500EAE7F0E0808180648083FF918F
:10015000EF91BF91AF919F918F917F916F915F913F
:100160004F913F912F910F900FBE0F901F901895B8
:04017000F894FFCF31
:00000001FF
