S01000004C6162365F50574D2E737265637C
S11300000C9434000C943E000C943E000C943E007E
S11300100C943E000C943E000C943E000C943E0064
S11300200C943E000C943E000C943E000C943E0054
S11300300C943E000C943E000C943E000C943E0044
S11300400C943E000C943E000C943E000C943E0034
S11300500C943E000C947C000C943E000C943E00E6
S11300600C943E000C943E0011241FBECFEFD8E048
S1130070DEBFCDBF0E94A9000C94B2000C94000016
S1130080ECE7F0E0808180668083EAE7F0E080813D
S11300908868808380818660808380818064808397
S11300A00895E0E8F0E0808182688083E1E8F0E090
S11300B080818A6180838FE39CE990938700809399
S11300C0860084B1816084B9089528E2AC01249F3C
S11300D0C001259F900D1124209186003091870046
S11300E02817390720F48091860090918700909317
S11300F089008093880008951F920F920FB60F9283
S113010011242F933F934F935F936F937F938F9318
S11301109F93AF93BF93EF93FF9380917800909157
S113012079000E946500EAE7F0E0808180648083C2
S1130130FF91EF91BF91AF919F918F917F916F91BB
S11301405F914F913F912F910F900FBE0F901F9091
S1130150189584B1826084B90E9440000E945100C5
S10B01607894FFCFF894FFCF5F
S9030000FC
