:100000000C9434000C9446000C9446000C9446006A
:100010000C9446000C9446000C9446000C943E014F
:100020000C9446000C942C010C9446000C94460051
:100030000C9446000C9446000C9446000C94460028
:100040000C94D1000C9446000C9446000C9446008D
:100050000C9446000C94E7000C9446000C94460067
:100060000C9446000C94460011241FBECFEFD8E03C
:10007000DEBFCDBF21E0A0E0B1E001C01D92A13004
:10008000B207E1F70E94BF000C944D010C940000F0
:10009000ECE7F0E0808180668083EAE7F0E0808131
:1000A000886880838081866080838081806480838B
:1000B0000895ECE7F0E09081907F8F70892B80832A
:1000C0000895E0E8F0E08081826A8083E1E8F0E072
:1000D00080818A6180838FE39CE99093870080937D
:1000E000860084B1866084B908952FE0AC01249F16
:1000F000C001259F900D112488519C4F20918600AE
:10010000309187002817390720F48091860090915C
:100110008700909389008093880008952FE0AC01B8
:10012000249FC001259F900D112488519C4F209140
:100130008600309187002817390720F480918600C7
:100140009091870090938B0080938A00089585B5E5
:10015000836085BD16BCEEE6F0E08081816080831F
:100160000895E1EBF0E0808182608083E0E7F0E0D9
:100170008081836080838AB188608AB90895F89409
:1001800084B1866084B90E9448000E94A7000E9442
:1001900061000E94B1007894FFCF80958093B300F6
:1001A00008951F920F920FB60F9211248F93EF9321
:1001B000FF9316BCEAE7F0E0808180648083FF91C2
:1001C000EF918F910F900FBE0F901F9018951F9277
:1001D0000F920FB60F9211242F933F934F935F937B
:1001E0006F937F938F939F93AF93BF93EF93FF93FF
:1001F0008091790090910001913069F018F092306F
:1002000099F019C090E00E94750081E08093000190
:100210000E94590010C090E00E948E0082E08093FE
:1002200000010E94590007C00E94CD0010920001F9
:1002300080E00E945900FF91EF91BF91AF919F9193
:100240008F917F916F915F914F913F912F910F907F
:100250000FBE0F901F9018951F920F920FB60F921E
:1002600011248F939F9399B188E089278BB99F912F
:100270008F910F900FBE0F901F9018951F920F92A5
:100280000FB60F9211248F9389B188608BB98F912B
:0E0290000F900FBE0F901F901895F894FFCF9F
:00000001FF
