S01000004C6162365F50574D2E737265637C
S11300000C9434000C9446000C9446000C94460066
S11300100C9446000C9446000C9446000C94460044
S11300200C9446000C9446000C9446000C94460034
S11300300C9446000C9446000C9446000C94460024
S11300400C94D6000C9446000C9446000C94460084
S11300500C9446000C94EC000C9446000C9446005E
S11300600C9446000C94460011241FBECFEFD8E038
S1130070DEBFCDBF21E0A0E0B1E001C01D92A13000
S1130080B207E1F70E94C8000C9439010C940000F7
S1130090ECE7F0E0808180668083EAE7F0E080812D
S11300A08868808380818660808380818064808387
S11300B00895ECE7F0E09081907F8F70892B808326
S11300C00895E0E8F0E08081826A8083E1E8F0E06E
S11300D080818A6180838FE39CE990938700809379
S11300E0860084B1866084B908952FE0AC01249F12
S11300F0C001259F900D112488519C4F20918600AA
S1130100309187002817390720F480918600909158
S11301108700909389008093880008952FE0AC01B4
S1130120249FC001259F900D112488519C4F20913C
S11301308600309187002817390720F480918600C3
S11301409091870090938B0080938A000895E0EB50
S1130150F0E08081836A8083E1EBF0E0808182605B
S1130160808384B1886084B98AB188608AB908952B
S11301708093B30008958093B400089585B5836097
S113018085BD16BCEEE6F0E0808181608083089531
S1130190F89484B1866084B90E9448000E94BE002D
S11301A00E9461000E94A7007894FFCF1F920F92D3
S11301B00FB60F9211248F93EF93FF9316BCEAE7C7
S11301C0F0E0808180648083FF91EF918F910F90A4
S11301D00FBE0F901F9018951F920F920FB60F929B
S11301E011242F933F934F935F936F937F938F9338
S11301F09F93AF93BF93CF93EF93FF93C0917900F5
S113020080910001813071F018F08230A9F01FC094
S11302108C2F90E00E94750081E0809300010E9481
S1130220590015C08C2F90E00E948E0082E08093CC
S113023000010E9459000BC08C2F0E94BB008C2F20
S11302400E94B8001092000180E00E945900FF91C2
S1130250EF91CF91BF91AF919F918F917F916F91CA
S11302605F914F913F912F910F900FBE0F901F9070
S10902701895F894FFCF7D
S9030000FC
